{
  "_format": "hh-sol-artifact-1",
  "contractName": "NFTCollection",
  "sourceName": "contracts/NFTCollection.sol",
  "abi": [
    {
      "inputs": [],
      "stateMutability": "nonpayable",
      "type": "constructor"
    },
    {
      "inputs": [
        {
          "internalType": "address",
          "name": "sender",
          "type": "address"
        },
        {
          "internalType": "uint256",
          "name": "tokenId",
          "type": "uint256"
        },
        {
          "internalType": "address",
          "name": "owner",
          "type": "address"
        }
      ],
      "name": "ERC721IncorrectOwner",
      "type": "error"
    },
    {
      "inputs": [
        {
          "internalType": "address",
          "name": "operator",
          "type": "address"
        },
        {
          "internalType": "uint256",
          "name": "tokenId",
          "type": "uint256"
        }
      ],
      "name": "ERC721InsufficientApproval",
      "type": "error"
    },
    {
      "inputs": [
        {
          "internalType": "address",
          "name": "approver",
          "type": "address"
        }
      ],
      "name": "ERC721InvalidApprover",
      "type": "error"
    },
    {
      "inputs": [
        {
          "internalType": "address",
          "name": "operator",
          "type": "address"
        }
      ],
      "name": "ERC721InvalidOperator",
      "type": "error"
    },
    {
      "inputs": [
        {
          "internalType": "address",
          "name": "owner",
          "type": "address"
        }
      ],
      "name": "ERC721InvalidOwner",
      "type": "error"
    },
    {
      "inputs": [
        {
          "internalType": "address",
          "name": "receiver",
          "type": "address"
        }
      ],
      "name": "ERC721InvalidReceiver",
      "type": "error"
    },
    {
      "inputs": [
        {
          "internalType": "address",
          "name": "sender",
          "type": "address"
        }
      ],
      "name": "ERC721InvalidSender",
      "type": "error"
    },
    {
      "inputs": [
        {
          "internalType": "uint256",
          "name": "tokenId",
          "type": "uint256"
        }
      ],
      "name": "ERC721NonexistentToken",
      "type": "error"
    },
    {
      "inputs": [
        {
          "internalType": "address",
          "name": "owner",
          "type": "address"
        }
      ],
      "name": "OwnableInvalidOwner",
      "type": "error"
    },
    {
      "inputs": [
        {
          "internalType": "address",
          "name": "account",
          "type": "address"
        }
      ],
      "name": "OwnableUnauthorizedAccount",
      "type": "error"
    },
    {
      "inputs": [],
      "name": "ReentrancyGuardReentrantCall",
      "type": "error"
    },
    {
      "anonymous": false,
      "inputs": [
        {
          "indexed": true,
          "internalType": "address",
          "name": "owner",
          "type": "address"
        },
        {
          "indexed": true,
          "internalType": "address",
          "name": "approved",
          "type": "address"
        },
        {
          "indexed": true,
          "internalType": "uint256",
          "name": "tokenId",
          "type": "uint256"
        }
      ],
      "name": "Approval",
      "type": "event"
    },
    {
      "anonymous": false,
      "inputs": [
        {
          "indexed": true,
          "internalType": "address",
          "name": "owner",
          "type": "address"
        },
        {
          "indexed": true,
          "internalType": "address",
          "name": "operator",
          "type": "address"
        },
        {
          "indexed": false,
          "internalType": "bool",
          "name": "approved",
          "type": "bool"
        }
      ],
      "name": "ApprovalForAll",
      "type": "event"
    },
    {
      "anonymous": false,
      "inputs": [
        {
          "indexed": true,
          "internalType": "uint256",
          "name": "tokenId",
          "type": "uint256"
        },
        {
          "indexed": true,
          "internalType": "address",
          "name": "winner",
          "type": "address"
        },
        {
          "indexed": false,
          "internalType": "uint256",
          "name": "amount",
          "type": "uint256"
        }
      ],
      "name": "AuctionEnded",
      "type": "event"
    },
    {
      "anonymous": false,
      "inputs": [
        {
          "indexed": true,
          "internalType": "uint256",
          "name": "tokenId",
          "type": "uint256"
        },
        {
          "indexed": true,
          "internalType": "address",
          "name": "bidder",
          "type": "address"
        },
        {
          "indexed": false,
          "internalType": "uint256",
          "name": "amount",
          "type": "uint256"
        }
      ],
      "name": "BidPlaced",
      "type": "event"
    },
    {
      "anonymous": false,
      "inputs": [
        {
          "indexed": true,
          "internalType": "uint256",
          "name": "tokenId",
          "type": "uint256"
        },
        {
          "indexed": true,
          "internalType": "address",
          "name": "bidder",
          "type": "address"
        },
        {
          "indexed": false,
          "internalType": "uint256",
          "name": "amount",
          "type": "uint256"
        }
      ],
      "name": "BidWithdrawn",
      "type": "event"
    },
    {
      "anonymous": false,
      "inputs": [
        {
          "indexed": true,
          "internalType": "uint256",
          "name": "tokenId",
          "type": "uint256"
        }
      ],
      "name": "ListingCancelled",
      "type": "event"
    },
    {
      "anonymous": false,
      "inputs": [
        {
          "indexed": true,
          "internalType": "uint256",
          "name": "tokenId",
          "type": "uint256"
        },
        {
          "indexed": true,
          "internalType": "address",
          "name": "seller",
          "type": "address"
        },
        {
          "indexed": false,
          "internalType": "uint256",
          "name": "price",
          "type": "uint256"
        },
        {
          "indexed": false,
          "internalType": "enum NFTCollection.SaleType",
          "name": "saleType",
          "type": "uint8"
        }
      ],
      "name": "NFTListed",
      "type": "event"
    },
    {
      "anonymous": false,
      "inputs": [
        {
          "indexed": true,
          "internalType": "uint256",
          "name": "tokenId",
          "type": "uint256"
        },
        {
          "indexed": true,
          "internalType": "address",
          "name": "seller",
          "type": "address"
        },
        {
          "indexed": true,
          "internalType": "address",
          "name": "buyer",
          "type": "address"
        },
        {
          "indexed": false,
          "internalType": "uint256",
          "name": "price",
          "type": "uint256"
        }
      ],
      "name": "NFTSold",
      "type": "event"
    },
    {
      "anonymous": false,
      "inputs": [
        {
          "indexed": true,
          "internalType": "address",
          "name": "previousOwner",
          "type": "address"
        },
        {
          "indexed": true,
          "internalType": "address",
          "name": "newOwner",
          "type": "address"
        }
      ],
      "name": "OwnershipTransferred",
      "type": "event"
    },
    {
      "anonymous": false,
      "inputs": [
        {
          "indexed": true,
          "internalType": "uint256",
          "name": "tokenId",
          "type": "uint256"
        },
        {
          "indexed": true,
          "internalType": "address",
          "name": "recipient",
          "type": "address"
        },
        {
          "indexed": false,
          "internalType": "uint256",
          "name": "amount",
          "type": "uint256"
        }
      ],
      "name": "RoyaltyPaid",
      "type": "event"
    },
    {
      "anonymous": false,
      "inputs": [
        {
          "indexed": true,
          "internalType": "address",
          "name": "from",
          "type": "address"
        },
        {
          "indexed": true,
          "internalType": "address",
          "name": "to",
          "type": "address"
        },
        {
          "indexed": true,
          "internalType": "uint256",
          "name": "tokenId",
          "type": "uint256"
        }
      ],
      "name": "Transfer",
      "type": "event"
    },
    {
      "inputs": [
        {
          "internalType": "uint256",
          "name": "",
          "type": "uint256"
        }
      ],
      "name": "activeListings",
      "outputs": [
        {
          "internalType": "uint256",
          "name": "",
          "type": "uint256"
        }
      ],
      "stateMutability": "view",
      "type": "function"
    },
    {
      "inputs": [
        {
          "internalType": "address",
          "name": "to",
          "type": "address"
        },
        {
          "internalType": "uint256",
          "name": "tokenId",
          "type": "uint256"
        }
      ],
      "name": "approve",
      "outputs": [],
      "stateMutability": "nonpayable",
      "type": "function"
    },
    {
      "inputs": [
        {
          "internalType": "uint256",
          "name": "",
          "type": "uint256"
        }
      ],
      "name": "asks",
      "outputs": [
        {
          "internalType": "address",
          "name": "seller",
          "type": "address"
        },
        {
          "internalType": "uint256",
          "name": "tokenId",
          "type": "uint256"
        },
        {
          "internalType": "uint256",
          "name": "price",
          "type": "uint256"
        },
        {
          "internalType": "bool",
          "name": "active",
          "type": "bool"
        }
      ],
      "stateMutability": "view",
      "type": "function"
    },
    {
      "inputs": [
        {
          "internalType": "uint256",
          "name": "",
          "type": "uint256"
        },
        {
          "internalType": "address",
          "name": "",
          "type": "address"
        }
      ],
      "name": "auctionBids",
      "outputs": [
        {
          "internalType": "uint256",
          "name": "",
          "type": "uint256"
        }
      ],
      "stateMutability": "view",
      "type": "function"
    },
    {
      "inputs": [
        {
          "internalType": "address",
          "name": "owner",
          "type": "address"
        }
      ],
      "name": "balanceOf",
      "outputs": [
        {
          "internalType": "uint256",
          "name": "",
          "type": "uint256"
        }
      ],
      "stateMutability": "view",
      "type": "function"
    },
    {
      "inputs": [
        {
          "internalType": "uint256",
          "name": "",
          "type": "uint256"
        },
        {
          "internalType": "uint256",
          "name": "",
          "type": "uint256"
        }
      ],
      "name": "bidders",
      "outputs": [
        {
          "internalType": "address",
          "name": "",
          "type": "address"
        }
      ],
      "stateMutability": "view",
      "type": "function"
    },
    {
      "inputs": [
        {
          "internalType": "uint256",
          "name": "",
          "type": "uint256"
        }
      ],
      "name": "bids",
      "outputs": [
        {
          "internalType": "address",
          "name": "buyer",
          "type": "address"
        },
        {
          "internalType": "uint256",
          "name": "price",
          "type": "uint256"
        },
        {
          "internalType": "bool",
          "name": "active",
          "type": "bool"
        }
      ],
      "stateMutability": "view",
      "type": "function"
    },
    {
      "inputs": [
        {
          "internalType": "uint256",
          "name": "tokenId",
          "type": "uint256"
        }
      ],
      "name": "buyNFT",
      "outputs": [],
      "stateMutability": "payable",
      "type": "function"
    },
    {
      "inputs": [
        {
          "internalType": "uint256",
          "name": "tokenId",
          "type": "uint256"
        }
      ],
      "name": "cancelListing",
      "outputs": [],
      "stateMutability": "nonpayable",
      "type": "function"
    },
    {
      "inputs": [
        {
          "internalType": "uint256",
          "name": "tokenId",
          "type": "uint256"
        },
        {
          "internalType": "uint256",
          "name": "price",
          "type": "uint256"
        }
      ],
      "name": "createAsk",
      "outputs": [],
      "stateMutability": "nonpayable",
      "type": "function"
    },
    {
      "inputs": [],
      "name": "createBid",
      "outputs": [],
      "stateMutability": "payable",
      "type": "function"
    },
    {
      "inputs": [
        {
          "internalType": "uint256",
          "name": "tokenId",
          "type": "uint256"
        }
      ],
      "name": "endAuction",
      "outputs": [],
      "stateMutability": "nonpayable",
      "type": "function"
    },
    {
      "inputs": [],
      "name": "getActiveListings",
      "outputs": [
        {
          "internalType": "uint256[]",
          "name": "",
          "type": "uint256[]"
        }
      ],
      "stateMutability": "view",
      "type": "function"
    },
    {
      "inputs": [
        {
          "internalType": "uint256",
          "name": "tokenId",
          "type": "uint256"
        }
      ],
      "name": "getApproved",
      "outputs": [
        {
          "internalType": "address",
          "name": "",
          "type": "address"
        }
      ],
      "stateMutability": "view",
      "type": "function"
    },
    {
      "inputs": [
        {
          "internalType": "uint256",
          "name": "tokenId",
          "type": "uint256"
        }
      ],
      "name": "getBidHistory",
      "outputs": [
        {
          "internalType": "address[]",
          "name": "",
          "type": "address[]"
        },
        {
          "internalType": "uint256[]",
          "name": "",
          "type": "uint256[]"
        }
      ],
      "stateMutability": "view",
      "type": "function"
    },
    {
      "inputs": [
        {
          "internalType": "uint256",
          "name": "tokenId",
          "type": "uint256"
        }
      ],
      "name": "getListing",
      "outputs": [
        {
          "components": [
            {
              "internalType": "address",
              "name": "seller",
              "type": "address"
            },
            {
              "internalType": "uint256",
              "name": "tokenId",
              "type": "uint256"
            },
            {
              "internalType": "uint256",
              "name": "price",
              "type": "uint256"
            },
            {
              "internalType": "enum NFTCollection.SaleType",
              "name": "saleType",
              "type": "uint8"
            },
            {
              "internalType": "uint256",
              "name": "auctionEndTime",
              "type": "uint256"
            },
            {
              "internalType": "uint256",
              "name": "highestBid",
              "type": "uint256"
            },
            {
              "internalType": "address",
              "name": "highestBidder",
              "type": "address"
            },
            {
              "internalType": "bool",
              "name": "active",
              "type": "bool"
            },
            {
              "internalType": "uint256",
              "name": "listingTime",
              "type": "uint256"
            }
          ],
          "internalType": "struct NFTCollection.Listing",
          "name": "",
          "type": "tuple"
        }
      ],
      "stateMutability": "view",
      "type": "function"
    },
    {
      "inputs": [
        {
          "internalType": "uint256",
          "name": "tokenId",
          "type": "uint256"
        },
        {
          "internalType": "uint256",
          "name": "salePrice",
          "type": "uint256"
        }
      ],
      "name": "getRoyaltyInfo",
      "outputs": [
        {
          "internalType": "address",
          "name": "",
          "type": "address"
        },
        {
          "internalType": "uint256",
          "name": "",
          "type": "uint256"
        }
      ],
      "stateMutability": "view",
      "type": "function"
    },
    {
      "inputs": [
        {
          "internalType": "uint256",
          "name": "tokenId",
          "type": "uint256"
        },
        {
          "internalType": "address",
          "name": "user",
          "type": "address"
        }
      ],
      "name": "getUserBid",
      "outputs": [
        {
          "internalType": "uint256",
          "name": "",
          "type": "uint256"
        }
      ],
      "stateMutability": "view",
      "type": "function"
    },
    {
      "inputs": [
        {
          "internalType": "address",
          "name": "owner",
          "type": "address"
        },
        {
          "internalType": "address",
          "name": "operator",
          "type": "address"
        }
      ],
      "name": "isApprovedForAll",
      "outputs": [
        {
          "internalType": "bool",
          "name": "",
          "type": "bool"
        }
      ],
      "stateMutability": "view",
      "type": "function"
    },
    {
      "inputs": [
        {
          "internalType": "uint256",
          "name": "tokenId",
          "type": "uint256"
        }
      ],
      "name": "isListed",
      "outputs": [
        {
          "internalType": "bool",
          "name": "",
          "type": "bool"
        }
      ],
      "stateMutability": "view",
      "type": "function"
    },
    {
      "inputs": [
        {
          "internalType": "uint256",
          "name": "tokenId",
          "type": "uint256"
        },
        {
          "internalType": "uint256",
          "name": "startingPrice",
          "type": "uint256"
        },
        {
          "internalType": "uint256",
          "name": "durationInSeconds",
          "type": "uint256"
        }
      ],
      "name": "listNFTAuction",
      "outputs": [],
      "stateMutability": "nonpayable",
      "type": "function"
    },
    {
      "inputs": [
        {
          "internalType": "uint256",
          "name": "tokenId",
          "type": "uint256"
        },
        {
          "internalType": "uint256",
          "name": "price",
          "type": "uint256"
        }
      ],
      "name": "listNFTFixedPrice",
      "outputs": [],
      "stateMutability": "nonpayable",
      "type": "function"
    },
    {
      "inputs": [
        {
          "internalType": "uint256",
          "name": "",
          "type": "uint256"
        }
      ],
      "name": "listings",
      "outputs": [
        {
          "internalType": "address",
          "name": "seller",
          "type": "address"
        },
        {
          "internalType": "uint256",
          "name": "tokenId",
          "type": "uint256"
        },
        {
          "internalType": "uint256",
          "name": "price",
          "type": "uint256"
        },
        {
          "internalType": "enum NFTCollection.SaleType",
          "name": "saleType",
          "type": "uint8"
        },
        {
          "internalType": "uint256",
          "name": "auctionEndTime",
          "type": "uint256"
        },
        {
          "internalType": "uint256",
          "name": "highestBid",
          "type": "uint256"
        },
        {
          "internalType": "address",
          "name": "highestBidder",
          "type": "address"
        },
        {
          "internalType": "bool",
          "name": "active",
          "type": "bool"
        },
        {
          "internalType": "uint256",
          "name": "listingTime",
          "type": "uint256"
        }
      ],
      "stateMutability": "view",
      "type": "function"
    },
    {
      "inputs": [
        {
          "internalType": "string",
          "name": "uri",
          "type": "string"
        }
      ],
      "name": "mint",
      "outputs": [
        {
          "internalType": "uint256",
          "name": "",
          "type": "uint256"
        }
      ],
      "stateMutability": "nonpayable",
      "type": "function"
    },
    {
      "inputs": [],
      "name": "name",
      "outputs": [
        {
          "internalType": "string",
          "name": "",
          "type": "string"
        }
      ],
      "stateMutability": "view",
      "type": "function"
    },
    {
      "inputs": [],
      "name": "owner",
      "outputs": [
        {
          "internalType": "address",
          "name": "",
          "type": "address"
        }
      ],
      "stateMutability": "view",
      "type": "function"
    },
    {
      "inputs": [
        {
          "internalType": "uint256",
          "name": "tokenId",
          "type": "uint256"
        }
      ],
      "name": "ownerOf",
      "outputs": [
        {
          "internalType": "address",
          "name": "",
          "type": "address"
        }
      ],
      "stateMutability": "view",
      "type": "function"
    },
    {
      "inputs": [
        {
          "internalType": "uint256",
          "name": "tokenId",
          "type": "uint256"
        }
      ],
      "name": "placeBid",
      "outputs": [],
      "stateMutability": "payable",
      "type": "function"
    },
    {
      "inputs": [],
      "name": "renounceOwnership",
      "outputs": [],
      "stateMutability": "nonpayable",
      "type": "function"
    },
    {
      "inputs": [
        {
          "internalType": "uint256",
          "name": "tokenId",
          "type": "uint256"
        },
        {
          "internalType": "uint256",
          "name": "salePrice",
          "type": "uint256"
        }
      ],
      "name": "royaltyInfo",
      "outputs": [
        {
          "internalType": "address",
          "name": "",
          "type": "address"
        },
        {
          "internalType": "uint256",
          "name": "",
          "type": "uint256"
        }
      ],
      "stateMutability": "view",
      "type": "function"
    },
    {
      "inputs": [
        {
          "internalType": "address",
          "name": "from",
          "type": "address"
        },
        {
          "internalType": "address",
          "name": "to",
          "type": "address"
        },
        {
          "internalType": "uint256",
          "name": "tokenId",
          "type": "uint256"
        }
      ],
      "name": "safeTransferFrom",
      "outputs": [],
      "stateMutability": "nonpayable",
      "type": "function"
    },
    {
      "inputs": [
        {
          "internalType": "address",
          "name": "from",
          "type": "address"
        },
        {
          "internalType": "address",
          "name": "to",
          "type": "address"
        },
        {
          "internalType": "uint256",
          "name": "tokenId",
          "type": "uint256"
        },
        {
          "internalType": "bytes",
          "name": "data",
          "type": "bytes"
        }
      ],
      "name": "safeTransferFrom",
      "outputs": [],
      "stateMutability": "nonpayable",
      "type": "function"
    },
    {
      "inputs": [
        {
          "internalType": "address",
          "name": "operator",
          "type": "address"
        },
        {
          "internalType": "bool",
          "name": "approved",
          "type": "bool"
        }
      ],
      "name": "setApprovalForAll",
      "outputs": [],
      "stateMutability": "nonpayable",
      "type": "function"
    },
    {
      "inputs": [
        {
          "internalType": "address",
          "name": "recipient",
          "type": "address"
        },
        {
          "internalType": "uint16",
          "name": "fraction",
          "type": "uint16"
        }
      ],
      "name": "setDefaultRoyalty",
      "outputs": [],
      "stateMutability": "nonpayable",
      "type": "function"
    },
    {
      "inputs": [
        {
          "internalType": "uint256",
          "name": "tokenId",
          "type": "uint256"
        },
        {
          "internalType": "address",
          "name": "recipient",
          "type": "address"
        },
        {
          "internalType": "uint16",
          "name": "fraction",
          "type": "uint16"
        }
      ],
      "name": "setTokenRoyalty",
      "outputs": [],
      "stateMutability": "nonpayable",
      "type": "function"
    },
    {
      "inputs": [
        {
          "internalType": "bytes4",
          "name": "interfaceId",
          "type": "bytes4"
        }
      ],
      "name": "supportsInterface",
      "outputs": [
        {
          "internalType": "bool",
          "name": "",
          "type": "bool"
        }
      ],
      "stateMutability": "view",
      "type": "function"
    },
    {
      "inputs": [],
      "name": "symbol",
      "outputs": [
        {
          "internalType": "string",
          "name": "",
          "type": "string"
        }
      ],
      "stateMutability": "view",
      "type": "function"
    },
    {
      "inputs": [
        {
          "internalType": "uint256",
          "name": "tokenId",
          "type": "uint256"
        }
      ],
      "name": "tokenURI",
      "outputs": [
        {
          "internalType": "string",
          "name": "",
          "type": "string"
        }
      ],
      "stateMutability": "view",
      "type": "function"
    },
    {
      "inputs": [],
      "name": "totalSupply",
      "outputs": [
        {
          "internalType": "uint256",
          "name": "",
          "type": "uint256"
        }
      ],
      "stateMutability": "view",
      "type": "function"
    },
    {
      "inputs": [
        {
          "internalType": "address",
          "name": "from",
          "type": "address"
        },
        {
          "internalType": "address",
          "name": "to",
          "type": "address"
        },
        {
          "internalType": "uint256",
          "name": "tokenId",
          "type": "uint256"
        }
      ],
      "name": "transferFrom",
      "outputs": [],
      "stateMutability": "nonpayable",
      "type": "function"
    },
    {
      "inputs": [
        {
          "internalType": "address",
          "name": "newOwner",
          "type": "address"
        }
      ],
      "name": "transferOwnership",
      "outputs": [],
      "stateMutability": "nonpayable",
      "type": "function"
    },
    {
      "inputs": [
        {
          "internalType": "uint256",
          "name": "tokenId",
          "type": "uint256"
        }
      ],
      "name": "withdrawBid",
      "outputs": [],
      "stateMutability": "nonpayable",
      "type": "function"
    }
  ],
  "bytecode": "0x608060405234801561001057600080fd5b50336040518060400160405280600e81526020017f4e46544d61726b6574706c6163650000000000000000000000000000000000008152506040518060400160405280600481526020017f4d4e465400000000000000000000000000000000000000000000000000000000815250816000908161008d9190610445565b50806001908161009d9190610445565b505050600073ffffffffffffffffffffffffffffffffffffffff168173ffffffffffffffffffffffffffffffffffffffff16036101125760006040517f1e4fbdf70000000000000000000000000000000000000000000000000000000081526004016101099190610558565b60405180910390fd5b6101218161012f60201b60201c565b506001600781905550610573565b6000600660009054906101000a900473ffffffffffffffffffffffffffffffffffffffff16905081600660006101000a81548173ffffffffffffffffffffffffffffffffffffffff021916908373ffffffffffffffffffffffffffffffffffffffff1602179055508173ffffffffffffffffffffffffffffffffffffffff168173ffffffffffffffffffffffffffffffffffffffff167f8be0079c531659141344cd1fd0a4f28419497f9722a3daafe3b4186f6b6457e060405160405180910390a35050565b600081519050919050565b7f4e487b7100000000000000000000000000000000000000000000000000000000600052604160045260246000fd5b7f4e487b7100000000000000000000000000000000000000000000000000000000600052602260045260246000fd5b6000600282049050600182168061027657607f821691505b6020821081036102895761028861022f565b5b50919050565b60008190508160005260206000209050919050565b60006020601f8301049050919050565b600082821b905092915050565b6000600883026102f17fffffffffffffffffffffffffffffffffffffffffffffffffffffffffffffffff826102b4565b6102fb86836102b4565b95508019841693508086168417925050509392505050565b6000819050919050565b6000819050919050565b600061034261033d61033884610313565b61031d565b610313565b9050919050565b6000819050919050565b61035c83610327565b61037061036882610349565b8484546102c1565b825550505050565b600090565b610385610378565b610390818484610353565b505050565b5b818110156103b4576103a960008261037d565b600181019050610396565b5050565b601f8211156103f9576103ca8161028f565b6103d3846102a4565b810160208510156103e2578190505b6103f66103ee856102a4565b830182610395565b50505b505050565b600082821c905092915050565b600061041c600019846008026103fe565b1980831691505092915050565b6000610435838361040b565b9150826002028217905092915050565b61044e826101f5565b67ffffffffffffffff81111561046757610466610200565b5b610471825461025e565b61047c8282856103b8565b600060209050601f8311600181146104af576000841561049d578287015190505b6104a78582610429565b86555061050f565b601f1984166104bd8661028f565b60005b828110156104e5578489015182556001820191506020850194506020810190506104c0565b8683101561050257848901516104fe601f89168261040b565b8355505b6001600288020188555050505b505050505050565b600073ffffffffffffffffffffffffffffffffffffffff82169050919050565b600061054282610517565b9050919050565b61055281610537565b82525050565b600060208201905061056d6000830184610549565b92915050565b615e24806105826000396000f3fe6080604052600436106102515760003560e01c8063715018a611610139578063c0738dce116100b6578063de74e57b1161007a578063de74e57b1461090d578063e72101aa14610952578063e879b4751461097b578063e985e9c5146109b8578063f2fde38b146109f5578063fcce488314610a1e57610251565b8063c0738dce146107da578063c7ed115e14610818578063c87b56dd14610856578063d1c1120514610893578063d85d3d27146108d057610251565b806395d89b41116100fd57806395d89b41146107185780639979ef4514610743578063a22cb4651461075f578063b88d4fde14610788578063b9a2de3a146107b157610251565b8063715018a61461067857806378db6c531461068f57806383624074146106b857806387c35bc0146106c25780638da5cb5b146106ed57610251565b806323b872dd116101d25780634423c5f1116101965780634423c5f11461053d57806351ed82881461057c57806361cf4863146105985780636352211e146105d55780636d7238f81461061257806370a082311461063b57610251565b806323b872dd1461045b5780632a55205a14610484578063305a67a8146104c257806342842e0e146104eb5780634331f6391461051457610251565b80630eaaf4c8116102195780630eaaf4c814610364578063107a274a1461038d57806312df435b146103ca5780631504ceed146103f357806318160ddd1461043057610251565b806301ffc9a71461025657806306fdde0314610293578063081812fc146102be578063095ea7b3146102fb5780630b0c149314610324575b600080fd5b34801561026257600080fd5b5061027d60048036038101906102789190614abe565b610a5b565b60405161028a9190614b06565b60405180910390f35b34801561029f57600080fd5b506102a8610ad5565b6040516102b59190614bb1565b60405180910390f35b3480156102ca57600080fd5b506102e560048036038101906102e09190614c09565b610b67565b6040516102f29190614c77565b60405180910390f35b34801561030757600080fd5b50610322600480360381019061031d9190614cbe565b610b83565b005b34801561033057600080fd5b5061034b60048036038101906103469190614c09565b610b99565b60405161035b9493929190614d0d565b60405180910390f35b34801561037057600080fd5b5061038b60048036038101906103869190614c09565b610c06565b005b34801561039957600080fd5b506103b460048036038101906103af9190614c09565b610e41565b6040516103c19190614ead565b60405180910390f35b3480156103d657600080fd5b506103f160048036038101906103ec9190614ec9565b610fa3565b005b3480156103ff57600080fd5b5061041a60048036038101906104159190614f09565b611270565b6040516104279190614f49565b60405180910390f35b34801561043c57600080fd5b50610445611295565b6040516104529190614f49565b60405180910390f35b34801561046757600080fd5b50610482600480360381019061047d9190614f64565b61129f565b005b34801561049057600080fd5b506104ab60048036038101906104a69190614ec9565b6113a1565b6040516104b9929190614fb7565b60405180910390f35b3480156104ce57600080fd5b506104e960048036038101906104e49190614c09565b611444565b005b3480156104f757600080fd5b50610512600480360381019061050d9190614f64565b61155a565b005b34801561052057600080fd5b5061053b6004803603810190610536919061501a565b61157a565b005b34801561054957600080fd5b50610564600480360381019061055f9190614c09565b611634565b6040516105739392919061505a565b60405180910390f35b61059660048036038101906105919190614c09565b61169b565b005b3480156105a457600080fd5b506105bf60048036038101906105ba9190614c09565b6118f8565b6040516105cc9190614f49565b60405180910390f35b3480156105e157600080fd5b506105fc60048036038101906105f79190614c09565b61191c565b6040516106099190614c77565b60405180910390f35b34801561061e57600080fd5b5061063960048036038101906106349190614ec9565b61192e565b005b34801561064757600080fd5b50610662600480360381019061065d9190615091565b611a67565b60405161066f9190614f49565b60405180910390f35b34801561068457600080fd5b5061068d611b21565b005b34801561069b57600080fd5b506106b660048036038101906106b191906150be565b611b35565b005b6106c0611c3f565b005b3480156106ce57600080fd5b506106d7611d28565b6040516106e491906151c0565b60405180910390f35b3480156106f957600080fd5b50610702611d80565b60405161070f9190614c77565b60405180910390f35b34801561072457600080fd5b5061072d611daa565b60405161073a9190614bb1565b60405180910390f35b61075d60048036038101906107589190614c09565b611e3c565b005b34801561076b57600080fd5b506107866004803603810190610781919061520e565b6121ff565b005b34801561079457600080fd5b506107af60048036038101906107aa9190615383565b612215565b005b3480156107bd57600080fd5b506107d860048036038101906107d39190614c09565b61223a565b005b3480156107e657600080fd5b5061080160048036038101906107fc9190614c09565b612586565b60405161080f9291906154b5565b60405180910390f35b34801561082457600080fd5b5061083f600480360381019061083a9190614ec9565b612724565b60405161084d929190614fb7565b60405180910390f35b34801561086257600080fd5b5061087d60048036038101906108789190614c09565b6127ad565b60405161088a9190614bb1565b60405180910390f35b34801561089f57600080fd5b506108ba60048036038101906108b59190614ec9565b61285e565b6040516108c79190614c77565b60405180910390f35b3480156108dc57600080fd5b506108f760048036038101906108f2919061558d565b6128ac565b6040516109049190614f49565b60405180910390f35b34801561091957600080fd5b50610934600480360381019061092f9190614c09565b6128fa565b604051610949999897969594939291906155e5565b60405180910390f35b34801561095e57600080fd5b5061097960048036038101906109749190615672565b6129a2565b005b34801561098757600080fd5b506109a2600480360381019061099d9190614f09565b612c94565b6040516109af9190614f49565b60405180910390f35b3480156109c457600080fd5b506109df60048036038101906109da91906156c5565b612cef565b6040516109ec9190614b06565b60405180910390f35b348015610a0157600080fd5b50610a1c6004803603810190610a179190615091565b612d83565b005b348015610a2a57600080fd5b50610a456004803603810190610a409190614c09565b612e09565b604051610a529190614b06565b60405180910390f35b60007f2a55205a000000000000000000000000000000000000000000000000000000007bffffffffffffffffffffffffffffffffffffffffffffffffffffffff1916827bffffffffffffffffffffffffffffffffffffffffffffffffffffffff19161480610ace5750610acd82612e36565b5b9050919050565b606060008054610ae490615734565b80601f0160208091040260200160405190810160405280929190818152602001828054610b1090615734565b8015610b5d5780601f10610b3257610100808354040283529160200191610b5d565b820191906000526020600020905b815481529060010190602001808311610b4057829003601f168201915b5050505050905090565b6000610b7282612f18565b50610b7c82612fa0565b9050919050565b610b958282610b90612fdd565b612fe5565b5050565b60128181548110610ba957600080fd5b90600052602060002090600402016000915090508060000160009054906101000a900473ffffffffffffffffffffffffffffffffffffffff16908060010154908060020154908060030160009054906101000a900460ff16905084565b610c0e612ff7565b6000600c600083815260200190815260200160002090508060060160149054906101000a900460ff168015610c775750600180811115610c5157610c50614d70565b5b8160030160009054906101000a900460ff166001811115610c7557610c74614d70565b5b145b8015610cd357508060060160009054906101000a900473ffffffffffffffffffffffffffffffffffffffff1673ffffffffffffffffffffffffffffffffffffffff163373ffffffffffffffffffffffffffffffffffffffff1614155b610cdc57600080fd5b6000600f600084815260200190815260200160002060003373ffffffffffffffffffffffffffffffffffffffff1673ffffffffffffffffffffffffffffffffffffffff16815260200190815260200160002054905060008111610d3e57600080fd5b6000600f600085815260200190815260200160002060003373ffffffffffffffffffffffffffffffffffffffff1673ffffffffffffffffffffffffffffffffffffffff16815260200190815260200160002081905550610d9e833361303d565b3373ffffffffffffffffffffffffffffffffffffffff166108fc829081150290604051600060405180830381858888f19350505050158015610de4573d6000803e3d6000fd5b503373ffffffffffffffffffffffffffffffffffffffff16837f8f8619524e8d462cead34604bd2247ede24175801481e4d0b8059ac8aa41c30183604051610e2c9190614f49565b60405180910390a35050610e3e61328b565b50565b610e49614988565b600c6000838152602001908152602001600020604051806101200160405290816000820160009054906101000a900473ffffffffffffffffffffffffffffffffffffffff1673ffffffffffffffffffffffffffffffffffffffff1673ffffffffffffffffffffffffffffffffffffffff16815260200160018201548152602001600282015481526020016003820160009054906101000a900460ff166001811115610ef757610ef6614d70565b5b6001811115610f0957610f08614d70565b5b815260200160048201548152602001600582015481526020016006820160009054906101000a900473ffffffffffffffffffffffffffffffffffffffff1673ffffffffffffffffffffffffffffffffffffffff1673ffffffffffffffffffffffffffffffffffffffff1681526020016006820160149054906101000a900460ff161515151581526020016007820154815250509050919050565b3373ffffffffffffffffffffffffffffffffffffffff16610fc38361191c565b73ffffffffffffffffffffffffffffffffffffffff16148015610fe65750600081115b80156110135750600c600083815260200190815260200160002060060160149054906101000a900460ff16155b61101c57600080fd5b6040518061012001604052803373ffffffffffffffffffffffffffffffffffffffff1681526020018381526020018281526020016000600181111561106457611063614d70565b5b81526020016000815260200160008152602001600073ffffffffffffffffffffffffffffffffffffffff16815260200160011515815260200142815250600c600084815260200190815260200160002060008201518160000160006101000a81548173ffffffffffffffffffffffffffffffffffffffff021916908373ffffffffffffffffffffffffffffffffffffffff160217905550602082015181600101556040820151816002015560608201518160030160006101000a81548160ff0219169083600181111561113a57611139614d70565b5b02179055506080820151816004015560a0820151816005015560c08201518160060160006101000a81548173ffffffffffffffffffffffffffffffffffffffff021916908373ffffffffffffffffffffffffffffffffffffffff16021790555060e08201518160060160146101000a81548160ff0219169083151502179055506101008201518160070155905050600d8290806001815401808255809150506001900390600052602060002001600090919091909150556001600d805490506112039190615794565b600e6000848152602001908152602001600020819055503373ffffffffffffffffffffffffffffffffffffffff16827f046fec59dfefb3341991b94fead75ead40c649a0327dbb503eee498e9e1bcbed8360006040516112649291906157c8565b60405180910390a35050565b600f602052816000526040600020602052806000526040600020600091509150505481565b6000600854905090565b600073ffffffffffffffffffffffffffffffffffffffff168273ffffffffffffffffffffffffffffffffffffffff16036113115760006040517f64a0ae920000000000000000000000000000000000000000000000000000000081526004016113089190614c77565b60405180910390fd5b60006113258383611320612fdd565b613295565b90508373ffffffffffffffffffffffffffffffffffffffff168173ffffffffffffffffffffffffffffffffffffffff161461139b578382826040517f64283d7b000000000000000000000000000000000000000000000000000000008152600401611392939291906157f1565b60405180910390fd5b50505050565b6000806000600a600086815260200190815260200160002054905060008082036113ed57600960009054906101000a900473ffffffffffffffffffffffffffffffffffffffff166113f3565b601082901c5b9050600080830361141457600960149054906101000a900461ffff16611416565b825b9050816127108261ffff168861142c9190615828565b6114369190615899565b945094505050509250929050565b6000600c600083815260200190815260200160002090508060060160149054906101000a900460ff1680156114c857503373ffffffffffffffffffffffffffffffffffffffff168160000160009054906101000a900473ffffffffffffffffffffffffffffffffffffffff1673ffffffffffffffffffffffffffffffffffffffff16145b6114d157600080fd5b6001808111156114e4576114e3614d70565b5b8160030160009054906101000a900460ff16600181111561150857611507614d70565b5b0361152057611516826134af565b61151f826135d1565b5b61152982613713565b817f411aee90354c51b1b04cd563fcab2617142a9d50da19232d888547c8a1b7fd8a60405160405180910390a25050565b61157583838360405180602001604052806000815250612215565b505050565b61158261381b565b6103e861ffff168161ffff16111580156115c95750600073ffffffffffffffffffffffffffffffffffffffff168273ffffffffffffffffffffffffffffffffffffffff1614155b6115d257600080fd5b81600960006101000a81548173ffffffffffffffffffffffffffffffffffffffff021916908373ffffffffffffffffffffffffffffffffffffffff16021790555080600960146101000a81548161ffff021916908361ffff1602179055505050565b6013818154811061164457600080fd5b90600052602060002090600302016000915090508060000160009054906101000a900473ffffffffffffffffffffffffffffffffffffffff16908060010154908060020160009054906101000a900460ff16905083565b6116a3612ff7565b6000600c600083815260200190815260200160002090508060060160149054906101000a900460ff16801561170d5750600060018111156116e7576116e6614d70565b5b8160030160009054906101000a900460ff16600181111561170b5761170a614d70565b5b145b801561171d575080600201543410155b801561177957508060000160009054906101000a900473ffffffffffffffffffffffffffffffffffffffff1673ffffffffffffffffffffffffffffffffffffffff163373ffffffffffffffffffffffffffffffffffffffff1614155b61178257600080fd5b60008160000160009054906101000a900473ffffffffffffffffffffffffffffffffffffffff1690506000826002015490506117bd84613713565b6117c88233866138a2565b60006117d48583613a0f565b90508273ffffffffffffffffffffffffffffffffffffffff166108fc82846117fc9190615794565b9081150290604051600060405180830381858888f19350505050158015611827573d6000803e3d6000fd5b5081341115611883573373ffffffffffffffffffffffffffffffffffffffff166108fc83346118569190615794565b9081150290604051600060405180830381858888f19350505050158015611881573d6000803e3d6000fd5b505b3373ffffffffffffffffffffffffffffffffffffffff168373ffffffffffffffffffffffffffffffffffffffff16867f8562eb94748e30bb0071e932744ce902b460c683474fcb3bfd567ffa16b1afb2856040516118e19190614f49565b60405180910390a4505050506118f561328b565b50565b600d818154811061190857600080fd5b906000526020600020016000915090505481565b600061192782612f18565b9050919050565b3373ffffffffffffffffffffffffffffffffffffffff1661194e8361191c565b73ffffffffffffffffffffffffffffffffffffffff161461196e57600080fd5b61197933308461129f565b601260405180608001604052803373ffffffffffffffffffffffffffffffffffffffff16815260200184815260200183815260200160011515815250908060018154018082558091505060019003906000526020600020906004020160009091909190915060008201518160000160006101000a81548173ffffffffffffffffffffffffffffffffffffffff021916908373ffffffffffffffffffffffffffffffffffffffff160217905550602082015181600101556040820151816002015560608201518160030160006101000a81548160ff0219169083151502179055505050611a63613b77565b5050565b60008073ffffffffffffffffffffffffffffffffffffffff168273ffffffffffffffffffffffffffffffffffffffff1603611ada5760006040517f89c62b64000000000000000000000000000000000000000000000000000000008152600401611ad19190614c77565b60405180910390fd5b600360008373ffffffffffffffffffffffffffffffffffffffff1673ffffffffffffffffffffffffffffffffffffffff168152602001908152602001600020549050919050565b611b2961381b565b611b336000613f61565b565b3373ffffffffffffffffffffffffffffffffffffffff16611b5584614027565b73ffffffffffffffffffffffffffffffffffffffff161480611ba957503373ffffffffffffffffffffffffffffffffffffffff16611b91611d80565b73ffffffffffffffffffffffffffffffffffffffff16145b611bb257600080fd5b6103e861ffff168161ffff1611158015611bf95750600073ffffffffffffffffffffffffffffffffffffffff168273ffffffffffffffffffffffffffffffffffffffff1614155b611c0257600080fd5b8061ffff1660108373ffffffffffffffffffffffffffffffffffffffff16901b17600a600085815260200190815260200160002081905550505050565b60003411611c4c57600080fd5b601360405180606001604052803373ffffffffffffffffffffffffffffffffffffffff16815260200134815260200160011515815250908060018154018082558091505060019003906000526020600020906003020160009091909190915060008201518160000160006101000a81548173ffffffffffffffffffffffffffffffffffffffff021916908373ffffffffffffffffffffffffffffffffffffffff1602179055506020820151816001015560408201518160020160006101000a81548160ff0219169083151502179055505050611d26613b77565b565b6060600d805480602002602001604051908101604052809291908181526020018280548015611d7657602002820191906000526020600020905b815481526020019060010190808311611d62575b5050505050905090565b6000600660009054906101000a900473ffffffffffffffffffffffffffffffffffffffff16905090565b606060018054611db990615734565b80601f0160208091040260200160405190810160405280929190818152602001828054611de590615734565b8015611e325780601f10611e0757610100808354040283529160200191611e32565b820191906000526020600020905b815481529060010190602001808311611e1557829003601f168201915b5050505050905090565b611e44612ff7565b6000600c600083815260200190815260200160002090508060060160149054906101000a900460ff168015611ead5750600180811115611e8757611e86614d70565b5b8160030160009054906101000a900460ff166001811115611eab57611eaa614d70565b5b145b8015611ebc5750806004015442105b8015611f1857508060000160009054906101000a900473ffffffffffffffffffffffffffffffffffffffff1673ffffffffffffffffffffffffffffffffffffffff163373ffffffffffffffffffffffffffffffffffffffff1614155b611f2157600080fd5b600080826005015411611f38578160020154611f4f565b655af3107a40008260050154611f4e91906158ca565b5b905080341015611f5e57600080fd5b6000600f600085815260200190815260200160002060003373ffffffffffffffffffffffffffffffffffffffff1673ffffffffffffffffffffffffffffffffffffffff1681526020019081526020016000205490506000811115612008573373ffffffffffffffffffffffffffffffffffffffff166108fc829081150290604051600060405180830381858888f19350505050158015612002573d6000803e3d6000fd5b506120f4565b60106000858152602001908152602001600020339080600181540180825580915050600190039060005260206000200160009091909190916101000a81548173ffffffffffffffffffffffffffffffffffffffff021916908373ffffffffffffffffffffffffffffffffffffffff1602179055506001601060008681526020019081526020016000208054905061209f9190615794565b6011600086815260200190815260200160002060003373ffffffffffffffffffffffffffffffffffffffff1673ffffffffffffffffffffffffffffffffffffffff168152602001908152602001600020819055505b34600f600086815260200190815260200160002060003373ffffffffffffffffffffffffffffffffffffffff1673ffffffffffffffffffffffffffffffffffffffff1681526020019081526020016000208190555082600501543411156121a257348360050181905550338360060160006101000a81548173ffffffffffffffffffffffffffffffffffffffff021916908373ffffffffffffffffffffffffffffffffffffffff1602179055505b3373ffffffffffffffffffffffffffffffffffffffff16847f0e54eff26401bf69b81b26f60bd85ef47f5d85275c1d268d84f68d6897431c47346040516121e99190614f49565b60405180910390a35050506121fc61328b565b50565b61221161220a612fdd565b8383614064565b5050565b61222084848461129f565b61223461222b612fdd565b858585856141d3565b50505050565b612242612ff7565b6000600c600083815260200190815260200160002090508060060160149054906101000a900460ff1680156122ab575060018081111561228557612284614d70565b5b8160030160009054906101000a900460ff1660018111156122a9576122a8614d70565b5b145b80156122bb575080600401544210155b6122c457600080fd5b60008160000160009054906101000a900473ffffffffffffffffffffffffffffffffffffffff169050600073ffffffffffffffffffffffffffffffffffffffff168260060160009054906101000a900473ffffffffffffffffffffffffffffffffffffffff1673ffffffffffffffffffffffffffffffffffffffff161461251557612374818360060160009054906101000a900473ffffffffffffffffffffffffffffffffffffffff16856138a2565b6000612384848460050154613a0f565b90508173ffffffffffffffffffffffffffffffffffffffff166108fc8285600501546123b09190615794565b9081150290604051600060405180830381858888f193505050501580156123db573d6000803e3d6000fd5b5061240a848460060160009054906101000a900473ffffffffffffffffffffffffffffffffffffffff16614384565b8260060160009054906101000a900473ffffffffffffffffffffffffffffffffffffffff1673ffffffffffffffffffffffffffffffffffffffff16847fd2aa34a4fdbbc6dff6a3e56f46e0f3ae2a31d7785ff3487aa5c95c642acea50185600501546040516124799190614f49565b60405180910390a38260060160009054906101000a900473ffffffffffffffffffffffffffffffffffffffff1673ffffffffffffffffffffffffffffffffffffffff168273ffffffffffffffffffffffffffffffffffffffff16857f8562eb94748e30bb0071e932744ce902b460c683474fcb3bfd567ffa16b1afb286600501546040516125079190614f49565b60405180910390a450612567565b600073ffffffffffffffffffffffffffffffffffffffff16837fd2aa34a4fdbbc6dff6a3e56f46e0f3ae2a31d7785ff3487aa5c95c642acea501600060405161255e9190615943565b60405180910390a35b612570836135d1565b61257983613713565b505061258361328b565b50565b60608060006010600085815260200190815260200160002080548060200260200160405190810160405280929190818152602001828054801561261e57602002820191906000526020600020905b8160009054906101000a900473ffffffffffffffffffffffffffffffffffffffff1673ffffffffffffffffffffffffffffffffffffffff16815260200190600101908083116125d4575b505050505090506000815167ffffffffffffffff81111561264257612641615258565b5b6040519080825280602002602001820160405280156126705781602001602082028036833780820191505090505b50905060005b825181101561271657600f600087815260200190815260200160002060008483815181106126a7576126a661595e565b5b602002602001015173ffffffffffffffffffffffffffffffffffffffff1673ffffffffffffffffffffffffffffffffffffffff168152602001908152602001600020548282815181106126fd576126fc61595e565b5b6020026020010181815250508080600101915050612676565b508181935093505050915091565b6000803073ffffffffffffffffffffffffffffffffffffffff16632a55205a85856040518363ffffffff1660e01b815260040161276292919061598d565b6040805180830381865afa15801561277e573d6000803e3d6000fd5b505050506040513d601f19601f820116820180604052508101906127a291906159e0565b915091509250929050565b6060816127b981612f18565b50600b600084815260200190815260200160002080546127d890615734565b80601f016020809104026020016040519081016040528092919081815260200182805461280490615734565b80156128515780601f1061282657610100808354040283529160200191612851565b820191906000526020600020905b81548152906001019060200180831161283457829003601f168201915b5050505050915050919050565b6010602052816000526040600020818154811061287a57600080fd5b906000526020600020016000915091509054906101000a900473ffffffffffffffffffffffffffffffffffffffff1681565b6000806008600081546128be90615a20565b91905081905590506128d033826144db565b82600b600083815260200190815260200160002090816128f09190615c0a565b5080915050919050565b600c6020528060005260406000206000915090508060000160009054906101000a900473ffffffffffffffffffffffffffffffffffffffff16908060010154908060020154908060030160009054906101000a900460ff16908060040154908060050154908060060160009054906101000a900473ffffffffffffffffffffffffffffffffffffffff16908060060160149054906101000a900460ff16908060070154905089565b3373ffffffffffffffffffffffffffffffffffffffff166129c28461191c565b73ffffffffffffffffffffffffffffffffffffffff161480156129e55750600082115b80156129f15750600081115b8015612a005750620151808111155b8015612a2d5750600c600084815260200190815260200160002060060160149054906101000a900460ff16155b612a3657600080fd5b6040518061012001604052803373ffffffffffffffffffffffffffffffffffffffff168152602001848152602001838152602001600180811115612a7d57612a7c614d70565b5b81526020018242612a8e91906158ca565b815260200160008152602001600073ffffffffffffffffffffffffffffffffffffffff16815260200160011515815260200142815250600c600085815260200190815260200160002060008201518160000160006101000a81548173ffffffffffffffffffffffffffffffffffffffff021916908373ffffffffffffffffffffffffffffffffffffffff160217905550602082015181600101556040820151816002015560608201518160030160006101000a81548160ff02191690836001811115612b5d57612b5c614d70565b5b02179055506080820151816004015560a0820151816005015560c08201518160060160006101000a81548173ffffffffffffffffffffffffffffffffffffffff021916908373ffffffffffffffffffffffffffffffffffffffff16021790555060e08201518160060160146101000a81548160ff0219169083151502179055506101008201518160070155905050600d8390806001815401808255809150506001900390600052602060002001600090919091909150556001600d80549050612c269190615794565b600e6000858152602001908152602001600020819055503373ffffffffffffffffffffffffffffffffffffffff16837f046fec59dfefb3341991b94fead75ead40c649a0327dbb503eee498e9e1bcbed846001604051612c879291906157c8565b60405180910390a3505050565b6000600f600084815260200190815260200160002060008373ffffffffffffffffffffffffffffffffffffffff1673ffffffffffffffffffffffffffffffffffffffff16815260200190815260200160002054905092915050565b6000600560008473ffffffffffffffffffffffffffffffffffffffff1673ffffffffffffffffffffffffffffffffffffffff16815260200190815260200160002060008373ffffffffffffffffffffffffffffffffffffffff1673ffffffffffffffffffffffffffffffffffffffff16815260200190815260200160002060009054906101000a900460ff16905092915050565b612d8b61381b565b600073ffffffffffffffffffffffffffffffffffffffff168173ffffffffffffffffffffffffffffffffffffffff1603612dfd5760006040517f1e4fbdf7000000000000000000000000000000000000000000000000000000008152600401612df49190614c77565b60405180910390fd5b612e0681613f61565b50565b6000600c600083815260200190815260200160002060060160149054906101000a900460ff169050919050565b60007f80ac58cd000000000000000000000000000000000000000000000000000000007bffffffffffffffffffffffffffffffffffffffffffffffffffffffff1916827bffffffffffffffffffffffffffffffffffffffffffffffffffffffff19161480612f0157507f5b5e139f000000000000000000000000000000000000000000000000000000007bffffffffffffffffffffffffffffffffffffffffffffffffffffffff1916827bffffffffffffffffffffffffffffffffffffffffffffffffffffffff1916145b80612f115750612f10826145d4565b5b9050919050565b600080612f2483614027565b9050600073ffffffffffffffffffffffffffffffffffffffff168173ffffffffffffffffffffffffffffffffffffffff1603612f9757826040517f7e273289000000000000000000000000000000000000000000000000000000008152600401612f8e9190614f49565b60405180910390fd5b80915050919050565b60006004600083815260200190815260200160002060009054906101000a900473ffffffffffffffffffffffffffffffffffffffff169050919050565b600033905090565b612ff2838383600161463e565b505050565b600260075403613033576040517f3ee5aeb500000000000000000000000000000000000000000000000000000000815260040160405180910390fd5b6002600781905550565b60006011600084815260200190815260200160002060008373ffffffffffffffffffffffffffffffffffffffff1673ffffffffffffffffffffffffffffffffffffffff1681526020019081526020016000205490506000600160106000868152602001908152602001600020805490506130b79190615794565b90508082146131d95760006010600086815260200190815260200160002082815481106130e7576130e661595e565b5b9060005260206000200160009054906101000a900473ffffffffffffffffffffffffffffffffffffffff1690508060106000878152602001908152602001600020848154811061313a5761313961595e565b5b9060005260206000200160006101000a81548173ffffffffffffffffffffffffffffffffffffffff021916908373ffffffffffffffffffffffffffffffffffffffff160217905550826011600087815260200190815260200160002060008373ffffffffffffffffffffffffffffffffffffffff1673ffffffffffffffffffffffffffffffffffffffff16815260200190815260200160002081905550505b601060008581526020019081526020016000208054806131fc576131fb615cdc565b5b6001900381819060005260206000200160006101000a81549073ffffffffffffffffffffffffffffffffffffffff021916905590556011600085815260200190815260200160002060008473ffffffffffffffffffffffffffffffffffffffff1673ffffffffffffffffffffffffffffffffffffffff1681526020019081526020016000206000905550505050565b6001600781905550565b6000806132a184614027565b9050600073ffffffffffffffffffffffffffffffffffffffff168373ffffffffffffffffffffffffffffffffffffffff16146132e3576132e2818486614803565b5b600073ffffffffffffffffffffffffffffffffffffffff168173ffffffffffffffffffffffffffffffffffffffff16146133745761332560008560008061463e565b6001600360008373ffffffffffffffffffffffffffffffffffffffff1673ffffffffffffffffffffffffffffffffffffffff168152602001908152602001600020600082825403925050819055505b600073ffffffffffffffffffffffffffffffffffffffff168573ffffffffffffffffffffffffffffffffffffffff16146133f7576001600360008773ffffffffffffffffffffffffffffffffffffffff1673ffffffffffffffffffffffffffffffffffffffff168152602001908152602001600020600082825401925050819055505b846002600086815260200190815260200160002060006101000a81548173ffffffffffffffffffffffffffffffffffffffff021916908373ffffffffffffffffffffffffffffffffffffffff160217905550838573ffffffffffffffffffffffffffffffffffffffff168273ffffffffffffffffffffffffffffffffffffffff167fddf252ad1be2c89b69c2b068fc378daa952ba7f163c4a11628f55a4df523b3ef60405160405180910390a4809150509392505050565b600060106000838152602001908152602001600020905060005b81805490508110156135cc5760008282815481106134ea576134e961595e565b5b9060005260206000200160009054906101000a900473ffffffffffffffffffffffffffffffffffffffff1690506000600f600086815260200190815260200160002060008373ffffffffffffffffffffffffffffffffffffffff1673ffffffffffffffffffffffffffffffffffffffff16815260200190815260200160002054905060008111156135bd578173ffffffffffffffffffffffffffffffffffffffff166108fc829081150290604051600060405180830381858888f193505050501580156135bb573d6000803e3d6000fd5b505b505080806001019150506134c9565b505050565b600060106000838152602001908152602001600020905060005b81805490508110156136ef57600082828154811061360c5761360b61595e565b5b9060005260206000200160009054906101000a900473ffffffffffffffffffffffffffffffffffffffff169050600f600085815260200190815260200160002060008273ffffffffffffffffffffffffffffffffffffffff1673ffffffffffffffffffffffffffffffffffffffff168152602001908152602001600020600090556011600085815260200190815260200160002060008273ffffffffffffffffffffffffffffffffffffffff1673ffffffffffffffffffffffffffffffffffffffff168152602001908152602001600020600090555080806001019150506135eb565b5060106000838152602001908152602001600020600061370f9190614a14565b5050565b6000600e600083815260200190815260200160002054905060006001600d8054905061373f9190615794565b90508082146137a8576000600d828154811061375e5761375d61595e565b5b9060005260206000200154905080600d84815481106137805761377f61595e565b5b906000526020600020018190555082600e600083815260200190815260200160002081905550505b600d8054806137ba576137b9615cdc565b5b60019003818190600052602060002001600090559055600e6000848152602001908152602001600020600090556000600c600085815260200190815260200160002060060160146101000a81548160ff021916908315150217905550505050565b613823612fdd565b73ffffffffffffffffffffffffffffffffffffffff16613841611d80565b73ffffffffffffffffffffffffffffffffffffffff16146138a057613864612fdd565b6040517f118cdaa70000000000000000000000000000000000000000000000000000000081526004016138979190614c77565b60405180910390fd5b565b600073ffffffffffffffffffffffffffffffffffffffff168273ffffffffffffffffffffffffffffffffffffffff16036139145760006040517f64a0ae9200000000000000000000000000000000000000000000000000000000815260040161390b9190614c77565b60405180910390fd5b600061392283836000613295565b9050600073ffffffffffffffffffffffffffffffffffffffff168173ffffffffffffffffffffffffffffffffffffffff160361399557816040517f7e27328900000000000000000000000000000000000000000000000000000000815260040161398c9190614f49565b60405180910390fd5b8373ffffffffffffffffffffffffffffffffffffffff168173ffffffffffffffffffffffffffffffffffffffff1614613a09578382826040517f64283d7b000000000000000000000000000000000000000000000000000000008152600401613a00939291906157f1565b60405180910390fd5b50505050565b60008060003073ffffffffffffffffffffffffffffffffffffffff16632a55205a86866040518363ffffffff1660e01b8152600401613a4f92919061598d565b6040805180830381865afa158015613a6b573d6000803e3d6000fd5b505050506040513d601f19601f82011682018060405250810190613a8f91906159e0565b91509150600081118015613ad05750600073ffffffffffffffffffffffffffffffffffffffff168273ffffffffffffffffffffffffffffffffffffffff1614155b15613b6c578173ffffffffffffffffffffffffffffffffffffffff166108fc829081150290604051600060405180830381858888f19350505050158015613b1b573d6000803e3d6000fd5b508173ffffffffffffffffffffffffffffffffffffffff16857ff670029fc6f5302baba881b4ae845d1453acdf752b4c19ed81fe0fa6a686409b83604051613b639190614f49565b60405180910390a35b809250505092915050565b60005b601280549050811015613f5e5760128181548110613b9b57613b9a61595e565b5b906000526020600020906004020160030160009054906101000a900460ff1615613f515760005b601380549050811015613f4f5760138181548110613be357613be261595e565b5b906000526020600020906003020160020160009054906101000a900460ff161580613c57575060128281548110613c1d57613c1c61595e565b5b90600052602060002090600402016002015460138281548110613c4357613c4261595e565b5b906000526020600020906003020160010154105b613f4257600060128381548110613c7157613c7061595e565b5b9060005260206000209060040201600101549050600060128481548110613c9b57613c9a61595e565b5b906000526020600020906004020160000160009054906101000a900473ffffffffffffffffffffffffffffffffffffffff169050600060138481548110613ce557613ce461595e565b5b906000526020600020906003020160000160009054906101000a900473ffffffffffffffffffffffffffffffffffffffff169050613d243082856138a2565b6000613d558460128881548110613d3e57613d3d61595e565b5b906000526020600020906004020160020154613a0f565b90508273ffffffffffffffffffffffffffffffffffffffff166108fc8260128981548110613d8657613d8561595e565b5b906000526020600020906004020160020154613da29190615794565b9081150290604051600060405180830381858888f19350505050158015613dcd573d6000803e3d6000fd5b5060128681548110613de257613de161595e565b5b90600052602060002090600402016002015460138681548110613e0857613e0761595e565b5b9060005260206000209060030201600101541115613ebd578173ffffffffffffffffffffffffffffffffffffffff166108fc60128881548110613e4e57613e4d61595e565b5b90600052602060002090600402016002015460138881548110613e7457613e7361595e565b5b906000526020600020906003020160010154613e909190615794565b9081150290604051600060405180830381858888f19350505050158015613ebb573d6000803e3d6000fd5b505b600060128781548110613ed357613ed261595e565b5b906000526020600020906004020160030160006101000a81548160ff021916908315150217905550600060138681548110613f1157613f1061595e565b5b906000526020600020906003020160020160006101000a81548160ff02191690831515021790555050505050613f4f565b8080600101915050613bc2565b505b8080600101915050613b7a565b50565b6000600660009054906101000a900473ffffffffffffffffffffffffffffffffffffffff16905081600660006101000a81548173ffffffffffffffffffffffffffffffffffffffff021916908373ffffffffffffffffffffffffffffffffffffffff1602179055508173ffffffffffffffffffffffffffffffffffffffff168173ffffffffffffffffffffffffffffffffffffffff167f8be0079c531659141344cd1fd0a4f28419497f9722a3daafe3b4186f6b6457e060405160405180910390a35050565b60006002600083815260200190815260200160002060009054906101000a900473ffffffffffffffffffffffffffffffffffffffff169050919050565b600073ffffffffffffffffffffffffffffffffffffffff168273ffffffffffffffffffffffffffffffffffffffff16036140d557816040517f5b08ba180000000000000000000000000000000000000000000000000000000081526004016140cc9190614c77565b60405180910390fd5b80600560008573ffffffffffffffffffffffffffffffffffffffff1673ffffffffffffffffffffffffffffffffffffffff16815260200190815260200160002060008473ffffffffffffffffffffffffffffffffffffffff1673ffffffffffffffffffffffffffffffffffffffff16815260200190815260200160002060006101000a81548160ff0219169083151502179055508173ffffffffffffffffffffffffffffffffffffffff168373ffffffffffffffffffffffffffffffffffffffff167f17307eab39ab6107e8899845ad3d59bd9653f200f220920489ca2b5937696c31836040516141c69190614b06565b60405180910390a3505050565b60008373ffffffffffffffffffffffffffffffffffffffff163b111561437d578273ffffffffffffffffffffffffffffffffffffffff1663150b7a02868685856040518563ffffffff1660e01b81526004016142329493929190615d60565b6020604051808303816000875af192505050801561426e57506040513d601f19601f8201168201806040525081019061426b9190615dc1565b60015b6142f2573d806000811461429e576040519150601f19603f3d011682016040523d82523d6000602084013e6142a3565b606091505b5060008151036142ea57836040517f64a0ae920000000000000000000000000000000000000000000000000000000081526004016142e19190614c77565b60405180910390fd5b805181602001fd5b63150b7a0260e01b7bffffffffffffffffffffffffffffffffffffffffffffffffffffffff1916817bffffffffffffffffffffffffffffffffffffffffffffffffffffffff19161461437b57836040517f64a0ae920000000000000000000000000000000000000000000000000000000081526004016143729190614c77565b60405180910390fd5b505b5050505050565b600060106000848152602001908152602001600020905060005b81805490508110156144d55760008282815481106143bf576143be61595e565b5b9060005260206000200160009054906101000a900473ffffffffffffffffffffffffffffffffffffffff1690508373ffffffffffffffffffffffffffffffffffffffff168173ffffffffffffffffffffffffffffffffffffffff16146144c7576000600f600087815260200190815260200160002060008373ffffffffffffffffffffffffffffffffffffffff1673ffffffffffffffffffffffffffffffffffffffff16815260200190815260200160002054905060008111156144c5578173ffffffffffffffffffffffffffffffffffffffff166108fc829081150290604051600060405180830381858888f193505050501580156144c3573d6000803e3d6000fd5b505b505b50808060010191505061439e565b50505050565b600073ffffffffffffffffffffffffffffffffffffffff168273ffffffffffffffffffffffffffffffffffffffff160361454d5760006040517f64a0ae920000000000000000000000000000000000000000000000000000000081526004016145449190614c77565b60405180910390fd5b600061455b83836000613295565b9050600073ffffffffffffffffffffffffffffffffffffffff168173ffffffffffffffffffffffffffffffffffffffff16146145cf5760006040517f73c6ac6e0000000000000000000000000000000000000000000000000000000081526004016145c69190614c77565b60405180910390fd5b505050565b60007f01ffc9a7000000000000000000000000000000000000000000000000000000007bffffffffffffffffffffffffffffffffffffffffffffffffffffffff1916827bffffffffffffffffffffffffffffffffffffffffffffffffffffffff1916149050919050565b80806146775750600073ffffffffffffffffffffffffffffffffffffffff168273ffffffffffffffffffffffffffffffffffffffff1614155b156147ab57600061468784612f18565b9050600073ffffffffffffffffffffffffffffffffffffffff168373ffffffffffffffffffffffffffffffffffffffff16141580156146f257508273ffffffffffffffffffffffffffffffffffffffff168173ffffffffffffffffffffffffffffffffffffffff1614155b801561470557506147038184612cef565b155b1561474757826040517fa9fbf51f00000000000000000000000000000000000000000000000000000000815260040161473e9190614c77565b60405180910390fd5b81156147a957838573ffffffffffffffffffffffffffffffffffffffff168273ffffffffffffffffffffffffffffffffffffffff167f8c5be1e5ebec7d5bd14f71427d1e84f3dd0314c0f7b2291e5b200ac8c7c3b92560405160405180910390a45b505b836004600085815260200190815260200160002060006101000a81548173ffffffffffffffffffffffffffffffffffffffff021916908373ffffffffffffffffffffffffffffffffffffffff16021790555050505050565b61480e8383836148c7565b6148c257600073ffffffffffffffffffffffffffffffffffffffff168373ffffffffffffffffffffffffffffffffffffffff160361488357806040517f7e27328900000000000000000000000000000000000000000000000000000000815260040161487a9190614f49565b60405180910390fd5b81816040517f177e802f0000000000000000000000000000000000000000000000000000000081526004016148b9929190614fb7565b60405180910390fd5b505050565b60008073ffffffffffffffffffffffffffffffffffffffff168373ffffffffffffffffffffffffffffffffffffffff161415801561497f57508273ffffffffffffffffffffffffffffffffffffffff168473ffffffffffffffffffffffffffffffffffffffff161480614940575061493f8484612cef565b5b8061497e57508273ffffffffffffffffffffffffffffffffffffffff1661496683612fa0565b73ffffffffffffffffffffffffffffffffffffffff16145b5b90509392505050565b604051806101200160405280600073ffffffffffffffffffffffffffffffffffffffff1681526020016000815260200160008152602001600060018111156149d3576149d2614d70565b5b81526020016000815260200160008152602001600073ffffffffffffffffffffffffffffffffffffffff168152602001600015158152602001600081525090565b5080546000825590600052602060002090810190614a329190614a35565b50565b5b80821115614a4e576000816000905550600101614a36565b5090565b6000604051905090565b600080fd5b600080fd5b60007fffffffff0000000000000000000000000000000000000000000000000000000082169050919050565b614a9b81614a66565b8114614aa657600080fd5b50565b600081359050614ab881614a92565b92915050565b600060208284031215614ad457614ad3614a5c565b5b6000614ae284828501614aa9565b91505092915050565b60008115159050919050565b614b0081614aeb565b82525050565b6000602082019050614b1b6000830184614af7565b92915050565b600081519050919050565b600082825260208201905092915050565b60005b83811015614b5b578082015181840152602081019050614b40565b60008484015250505050565b6000601f19601f8301169050919050565b6000614b8382614b21565b614b8d8185614b2c565b9350614b9d818560208601614b3d565b614ba681614b67565b840191505092915050565b60006020820190508181036000830152614bcb8184614b78565b905092915050565b6000819050919050565b614be681614bd3565b8114614bf157600080fd5b50565b600081359050614c0381614bdd565b92915050565b600060208284031215614c1f57614c1e614a5c565b5b6000614c2d84828501614bf4565b91505092915050565b600073ffffffffffffffffffffffffffffffffffffffff82169050919050565b6000614c6182614c36565b9050919050565b614c7181614c56565b82525050565b6000602082019050614c8c6000830184614c68565b92915050565b614c9b81614c56565b8114614ca657600080fd5b50565b600081359050614cb881614c92565b92915050565b60008060408385031215614cd557614cd4614a5c565b5b6000614ce385828601614ca9565b9250506020614cf485828601614bf4565b9150509250929050565b614d0781614bd3565b82525050565b6000608082019050614d226000830187614c68565b614d2f6020830186614cfe565b614d3c6040830185614cfe565b614d496060830184614af7565b95945050505050565b614d5b81614c56565b82525050565b614d6a81614bd3565b82525050565b7f4e487b7100000000000000000000000000000000000000000000000000000000600052602160045260246000fd5b60028110614db057614daf614d70565b5b50565b6000819050614dc182614d9f565b919050565b6000614dd182614db3565b9050919050565b614de181614dc6565b82525050565b614df081614aeb565b82525050565b61012082016000820151614e0d6000850182614d52565b506020820151614e206020850182614d61565b506040820151614e336040850182614d61565b506060820151614e466060850182614dd8565b506080820151614e596080850182614d61565b5060a0820151614e6c60a0850182614d61565b5060c0820151614e7f60c0850182614d52565b5060e0820151614e9260e0850182614de7565b50610100820151614ea7610100850182614d61565b50505050565b600061012082019050614ec36000830184614df6565b92915050565b60008060408385031215614ee057614edf614a5c565b5b6000614eee85828601614bf4565b9250506020614eff85828601614bf4565b9150509250929050565b60008060408385031215614f2057614f1f614a5c565b5b6000614f2e85828601614bf4565b9250506020614f3f85828601614ca9565b9150509250929050565b6000602082019050614f5e6000830184614cfe565b92915050565b600080600060608486031215614f7d57614f7c614a5c565b5b6000614f8b86828701614ca9565b9350506020614f9c86828701614ca9565b9250506040614fad86828701614bf4565b9150509250925092565b6000604082019050614fcc6000830185614c68565b614fd96020830184614cfe565b9392505050565b600061ffff82169050919050565b614ff781614fe0565b811461500257600080fd5b50565b60008135905061501481614fee565b92915050565b6000806040838503121561503157615030614a5c565b5b600061503f85828601614ca9565b925050602061505085828601615005565b9150509250929050565b600060608201905061506f6000830186614c68565b61507c6020830185614cfe565b6150896040830184614af7565b949350505050565b6000602082840312156150a7576150a6614a5c565b5b60006150b584828501614ca9565b91505092915050565b6000806000606084860312156150d7576150d6614a5c565b5b60006150e586828701614bf4565b93505060206150f686828701614ca9565b925050604061510786828701615005565b9150509250925092565b600081519050919050565b600082825260208201905092915050565b6000819050602082019050919050565b60006151498383614d61565b60208301905092915050565b6000602082019050919050565b600061516d82615111565b615177818561511c565b93506151828361512d565b8060005b838110156151b357815161519a888261513d565b97506151a583615155565b925050600181019050615186565b5085935050505092915050565b600060208201905081810360008301526151da8184615162565b905092915050565b6151eb81614aeb565b81146151f657600080fd5b50565b600081359050615208816151e2565b92915050565b6000806040838503121561522557615224614a5c565b5b600061523385828601614ca9565b9250506020615244858286016151f9565b9150509250929050565b600080fd5b600080fd5b7f4e487b7100000000000000000000000000000000000000000000000000000000600052604160045260246000fd5b61529082614b67565b810181811067ffffffffffffffff821117156152af576152ae615258565b5b80604052505050565b60006152c2614a52565b90506152ce8282615287565b919050565b600067ffffffffffffffff8211156152ee576152ed615258565b5b6152f782614b67565b9050602081019050919050565b82818337600083830152505050565b6000615326615321846152d3565b6152b8565b90508281526020810184848401111561534257615341615253565b5b61534d848285615304565b509392505050565b600082601f83011261536a5761536961524e565b5b813561537a848260208601615313565b91505092915050565b6000806000806080858703121561539d5761539c614a5c565b5b60006153ab87828801614ca9565b94505060206153bc87828801614ca9565b93505060406153cd87828801614bf4565b925050606085013567ffffffffffffffff8111156153ee576153ed614a61565b5b6153fa87828801615355565b91505092959194509250565b600081519050919050565b600082825260208201905092915050565b6000819050602082019050919050565b600061543e8383614d52565b60208301905092915050565b6000602082019050919050565b600061546282615406565b61546c8185615411565b935061547783615422565b8060005b838110156154a857815161548f8882615432565b975061549a8361544a565b92505060018101905061547b565b5085935050505092915050565b600060408201905081810360008301526154cf8185615457565b905081810360208301526154e38184615162565b90509392505050565b600067ffffffffffffffff82111561550757615506615258565b5b61551082614b67565b9050602081019050919050565b600061553061552b846154ec565b6152b8565b90508281526020810184848401111561554c5761554b615253565b5b615557848285615304565b509392505050565b600082601f8301126155745761557361524e565b5b813561558484826020860161551d565b91505092915050565b6000602082840312156155a3576155a2614a5c565b5b600082013567ffffffffffffffff8111156155c1576155c0614a61565b5b6155cd8482850161555f565b91505092915050565b6155df81614dc6565b82525050565b6000610120820190506155fb600083018c614c68565b615608602083018b614cfe565b615615604083018a614cfe565b61562260608301896155d6565b61562f6080830188614cfe565b61563c60a0830187614cfe565b61564960c0830186614c68565b61565660e0830185614af7565b615664610100830184614cfe565b9a9950505050505050505050565b60008060006060848603121561568b5761568a614a5c565b5b600061569986828701614bf4565b93505060206156aa86828701614bf4565b92505060406156bb86828701614bf4565b9150509250925092565b600080604083850312156156dc576156db614a5c565b5b60006156ea85828601614ca9565b92505060206156fb85828601614ca9565b9150509250929050565b7f4e487b7100000000000000000000000000000000000000000000000000000000600052602260045260246000fd5b6000600282049050600182168061574c57607f821691505b60208210810361575f5761575e615705565b5b50919050565b7f4e487b7100000000000000000000000000000000000000000000000000000000600052601160045260246000fd5b600061579f82614bd3565b91506157aa83614bd3565b92508282039050818111156157c2576157c1615765565b5b92915050565b60006040820190506157dd6000830185614cfe565b6157ea60208301846155d6565b9392505050565b60006060820190506158066000830186614c68565b6158136020830185614cfe565b6158206040830184614c68565b949350505050565b600061583382614bd3565b915061583e83614bd3565b925082820261584c81614bd3565b9150828204841483151761586357615862615765565b5b5092915050565b7f4e487b7100000000000000000000000000000000000000000000000000000000600052601260045260246000fd5b60006158a482614bd3565b91506158af83614bd3565b9250826158bf576158be61586a565b5b828204905092915050565b60006158d582614bd3565b91506158e083614bd3565b92508282019050808211156158f8576158f7615765565b5b92915050565b6000819050919050565b6000819050919050565b600061592d615928615923846158fe565b615908565b614bd3565b9050919050565b61593d81615912565b82525050565b60006020820190506159586000830184615934565b92915050565b7f4e487b7100000000000000000000000000000000000000000000000000000000600052603260045260246000fd5b60006040820190506159a26000830185614cfe565b6159af6020830184614cfe565b9392505050565b6000815190506159c581614c92565b92915050565b6000815190506159da81614bdd565b92915050565b600080604083850312156159f7576159f6614a5c565b5b6000615a05858286016159b6565b9250506020615a16858286016159cb565b9150509250929050565b6000615a2b82614bd3565b91507fffffffffffffffffffffffffffffffffffffffffffffffffffffffffffffffff8203615a5d57615a5c615765565b5b600182019050919050565b60008190508160005260206000209050919050565b60006020601f8301049050919050565b600082821b905092915050565b600060088302615aca7fffffffffffffffffffffffffffffffffffffffffffffffffffffffffffffffff82615a8d565b615ad48683615a8d565b95508019841693508086168417925050509392505050565b6000615b07615b02615afd84614bd3565b615908565b614bd3565b9050919050565b6000819050919050565b615b2183615aec565b615b35615b2d82615b0e565b848454615a9a565b825550505050565b600090565b615b4a615b3d565b615b55818484615b18565b505050565b5b81811015615b7957615b6e600082615b42565b600181019050615b5b565b5050565b601f821115615bbe57615b8f81615a68565b615b9884615a7d565b81016020851015615ba7578190505b615bbb615bb385615a7d565b830182615b5a565b50505b505050565b600082821c905092915050565b6000615be160001984600802615bc3565b1980831691505092915050565b6000615bfa8383615bd0565b9150826002028217905092915050565b615c1382614b21565b67ffffffffffffffff811115615c2c57615c2b615258565b5b615c368254615734565b615c41828285615b7d565b600060209050601f831160018114615c745760008415615c62578287015190505b615c6c8582615bee565b865550615cd4565b601f198416615c8286615a68565b60005b82811015615caa57848901518255600182019150602085019450602081019050615c85565b86831015615cc75784890151615cc3601f891682615bd0565b8355505b6001600288020188555050505b505050505050565b7f4e487b7100000000000000000000000000000000000000000000000000000000600052603160045260246000fd5b600081519050919050565b600082825260208201905092915050565b6000615d3282615d0b565b615d3c8185615d16565b9350615d4c818560208601614b3d565b615d5581614b67565b840191505092915050565b6000608082019050615d756000830187614c68565b615d826020830186614c68565b615d8f6040830185614cfe565b8181036060830152615da18184615d27565b905095945050505050565b600081519050615dbb81614a92565b92915050565b600060208284031215615dd757615dd6614a5c565b5b6000615de584828501615dac565b9150509291505056fea26469706673582212202774614db7717f9ac75de2f7bdbfb8de2adf97d7d9421bcbe594b0ed67bea09764736f6c634300081c0033",
  "linkReferences": {},
  "deployedLinkReferences": {}
}